{
  "transactions": [
    {
      "hash": "0xe9f59f55bc0e019e7e413f4edf08236443488f91438c427e1e46a047d5451091",
      "transactionType": "CALL",
      "contractName": null,
      "contractAddress": "0x4337084d9e255ff0702461cf8895ce9e3b5ff108",
      "function": "handleOps((address,uint256,bytes,bytes,bytes32,uint256,bytes32,bytes,bytes)[],address)",
      "arguments": [
        "[(0xeE311fA2E0cadC1D33c47dD621d7ac0c5A956899, 18446744073709551616, 0x7702, 0xb3ee7f11957f9bfbdc431335180afee8a1768ed046a456702c2ef6a5be72da6a3575d4ff957049de74109a56de88efd5097653ac3ac08a9af6473fa7a69ad3998cc6c2da000000000000000000000000000000000000000000000000000000000000000000000000000000000000000000000000000000000000000000000000000000010000000000000000000000009c0b94fb071ed4066d7c18f4b68968e311a6620900000000000000000000000000000000000000000000000000000000000000000000000000000000000000000000000000000000000000000000000000000160cfa4967c4ea9609e1639e817d19d6217d48aee4cc7e2049ea8e7a61a8c96043700000000000000000000000000000000000000000000000000000000000001c000000000000000000000000000000000000000000000000000000000682db7c400000000000000000000000000000000000000000000000000000000000000010000000000000000000000000000000000000000000000000000000000000002a9059cbb0000000000000000000000000000000000000000000000000000000040c10f190000000000000000000000000000000000000000000000000000000000000000000000000000000000000000000000000000000000000000000000410e23f692d409e0c9e89c1fe41716bfc008fc32b23fbc7cf90d8c58d55d51c1d3193b459be059a18b3f38d447e29f79b0b7b12dff6dbcdf4f3029995895b568c31c00000000000000000000000000000000000000000000000000000000000000, 0x00000000000000000000000000061a80000000000000000000000000000493e0, 800000, 0x000000000000000000000012a05f20000000000000000000000000037e11d600, 0x, 0x000000000000000000000000000000000000000000000000000000000000000000000000000000000000000000000000000000000000000000000000000000400000000000000000000000000000000000000000000000000000000000000041fed8a338b7fde17d27c4640e51cb24b9f2a38712c8420604f81d1c8cf370442a2cd05b6e375f754dac0b66aa38693311c8e383d1995597cf1ed49b1c53459f9a1c00000000000000000000000000000000000000000000000000000000000000)]",
        "0xeE311fA2E0cadC1D33c47dD621d7ac0c5A956899"
      ],
      "transaction": {
        "from": "0xa84e4f9d72cb37a8276090d3fc50895bd8e5aaf1",
        "to": "0x4337084d9e255ff0702461cf8895ce9e3b5ff108",
        "gas": "0xf4240",
        "value": "0x0",
        "input": "0x765e827f0000000000000000000000000000000000000000000000000000000000000040000000000000000000000000ee311fa2e0cadc1d33c47dd621d7ac0c5a95689900000000000000000000000000000000000000000000000000000000000000010000000000000000000000000000000000000000000000000000000000000020000000000000000000000000ee311fa2e0cadc1d33c47dd621d7ac0c5a95689900000000000000000000000000000000000000000000000100000000000000000000000000000000000000000000000000000000000000000000000000000120000000000000000000000000000000000000000000000000000000000000016000000000000000000000000000061a80000000000000000000000000000493e000000000000000000000000000000000000000000000000000000000000c3500000000000000000000000012a05f20000000000000000000000000037e11d60000000000000000000000000000000000000000000000000000000000000003e00000000000000000000000000000000000000000000000000000000000000400000000000000000000000000000000000000000000000000000000000000000277020000000000000000000000000000000000000000000000000000000000000000000000000000000000000000000000000000000000000000000000000244b3ee7f11957f9bfbdc431335180afee8a1768ed046a456702c2ef6a5be72da6a3575d4ff957049de74109a56de88efd5097653ac3ac08a9af6473fa7a69ad3998cc6c2da000000000000000000000000000000000000000000000000000000000000000000000000000000000000000000000000000000000000000000000000000000010000000000000000000000009c0b94fb071ed4066d7c18f4b68968e311a6620900000000000000000000000000000000000000000000000000000000000000000000000000000000000000000000000000000000000000000000000000000160cfa4967c4ea9609e1639e817d19d6217d48aee4cc7e2049ea8e7a61a8c96043700000000000000000000000000000000000000000000000000000000000001c000000000000000000000000000000000000000000000000000000000682db7c400000000000000000000000000000000000000000000000000000000000000010000000000000000000000000000000000000000000000000000000000000002a9059cbb0000000000000000000000000000000000000000000000000000000040c10f190000000000000000000000000000000000000000000000000000000000000000000000000000000000000000000000000000000000000000000000410e23f692d409e0c9e89c1fe41716bfc008fc32b23fbc7cf90d8c58d55d51c1d3193b459be059a18b3f38d447e29f79b0b7b12dff6dbcdf4f3029995895b568c31c0000000000000000000000000000000000000000000000000000000000000000000000000000000000000000000000000000000000000000000000000000000000000000000000000000000000000000000000000000000000000000000000000000000000000000000000000000000000000000000000000000c0000000000000000000000000000000000000000000000000000000000000000000000000000000000000000000000000000000000000000000000000000000400000000000000000000000000000000000000000000000000000000000000041fed8a338b7fde17d27c4640e51cb24b9f2a38712c8420604f81d1c8cf370442a2cd05b6e375f754dac0b66aa38693311c8e383d1995597cf1ed49b1c53459f9a1c00000000000000000000000000000000000000000000000000000000000000",
        "nonce": "0x81",
        "chainId": "0xaa36a7"
      },
      "additionalContracts": [],
      "isFixedGasLimit": true
    }
  ],
  "receipts": [
    {
      "status": "0x1",
      "cumulativeGasUsed": "0x183e606",
      "logs": [
        {
          "address": "0x4337084d9e255ff0702461cf8895ce9e3b5ff108",
          "topics": [
            "0x2da466a7b24304f47e87fa2e1e5a81b9831ce54fec19055ce277ca2f39ba42c4",
            "0x000000000000000000000000ee311fa2e0cadc1d33c47dd621d7ac0c5a956899"
          ],
          "data": "0x000000000000000000000000000000000000000000000000004fefa17b724000",
          "blockHash": "0xd110a6f5c5c1f47b8b1144dacac5276c657d52726f4439e2a117b5a9ea0ef472",
          "blockNumber": "0x7fad61",
          "blockTimestamp": "0x682c665c",
          "transactionHash": "0xe9f59f55bc0e019e7e413f4edf08236443488f91438c427e1e46a047d5451091",
          "transactionIndex": "0xaf",
          "logIndex": "0x18c",
          "removed": false
        },
        {
          "address": "0x4337084d9e255ff0702461cf8895ce9e3b5ff108",
          "topics": [
            "0xbb47ee3e183a558b1a2ff0874b079f3fc5478b7454eacf2bfc5af2ff5878f972"
          ],
          "data": "0x",
          "blockHash": "0xd110a6f5c5c1f47b8b1144dacac5276c657d52726f4439e2a117b5a9ea0ef472",
          "blockNumber": "0x7fad61",
          "blockTimestamp": "0x682c665c",
          "transactionHash": "0xe9f59f55bc0e019e7e413f4edf08236443488f91438c427e1e46a047d5451091",
          "transactionIndex": "0xaf",
          "logIndex": "0x18d",
          "removed": false
        },
        {
          "address": "0xee311fa2e0cadc1d33c47dd621d7ac0c5a956899",
          "topics": [
            "0xcd7f4163a8248a579c58031f40b757bb4998ed5f01c78bfb6ae1cd42edb95fb0",
            "0x7042fa7c3fa9a5609f896a08b7f65459d7721f7c70effb66ce5fe5e9422c685e"
          ],
          "data": "0x",
          "blockHash": "0xd110a6f5c5c1f47b8b1144dacac5276c657d52726f4439e2a117b5a9ea0ef472",
          "blockNumber": "0x7fad61",
          "blockTimestamp": "0x682c665c",
          "transactionHash": "0xe9f59f55bc0e019e7e413f4edf08236443488f91438c427e1e46a047d5451091",
          "transactionIndex": "0xaf",
          "logIndex": "0x18e",
          "removed": false
        },
        {
          "address": "0xee311fa2e0cadc1d33c47dd621d7ac0c5a956899",
          "topics": [
            "0x9be0ddb3ac5d6261cc8d736bf39c29feb13498533b6c9f960d8e175bf70e6a1a",
            "0xc1b56094577ebf3c3b794f0b25043bdfe1d85c70e0eab57efa94623cfe1f222f"
          ],
          "data": "0x",
          "blockHash": "0xd110a6f5c5c1f47b8b1144dacac5276c657d52726f4439e2a117b5a9ea0ef472",
          "blockNumber": "0x7fad61",
          "blockTimestamp": "0x682c665c",
          "transactionHash": "0xe9f59f55bc0e019e7e413f4edf08236443488f91438c427e1e46a047d5451091",
          "transactionIndex": "0xaf",
          "logIndex": "0x18f",
          "removed": false
        },
        {
          "address": "0xee311fa2e0cadc1d33c47dd621d7ac0c5a956899",
          "topics": [
            "0xc7f505b2f371ae2175ee4913f4499e1f2633a7b5936321eed1cdaeb6115181d2"
          ],
          "data": "0x0000000000000000000000000000000000000000000000000000000000000001",
          "blockHash": "0xd110a6f5c5c1f47b8b1144dacac5276c657d52726f4439e2a117b5a9ea0ef472",
          "blockNumber": "0x7fad61",
          "blockTimestamp": "0x682c665c",
          "transactionHash": "0xe9f59f55bc0e019e7e413f4edf08236443488f91438c427e1e46a047d5451091",
          "transactionIndex": "0xaf",
          "logIndex": "0x190",
          "removed": false
        },
        {
          "address": "0x4337084d9e255ff0702461cf8895ce9e3b5ff108",
          "topics": [
            "0x49628fd1471006c1482da88028e9ce4dbb080b815c9b0344d39e5a8e6ec1419f",
            "0x3cbfa01f23159fc6526889ef64bfbf743df9e6d349e327ee1c069596c1206121",
            "0x000000000000000000000000ee311fa2e0cadc1d33c47dd621d7ac0c5a956899",
            "0x0000000000000000000000000000000000000000000000000000000000000000"
          ],
          "data": "0x00000000000000000000000000000000000000000000000100000000000000000000000000000000000000000000000000000000000000000000000000000001000000000000000000000000000000000000000000000000003b99966e43a60000000000000000000000000000000000000000000000000000000000001110b9",
          "blockHash": "0xd110a6f5c5c1f47b8b1144dacac5276c657d52726f4439e2a117b5a9ea0ef472",
          "blockNumber": "0x7fad61",
          "blockTimestamp": "0x682c665c",
          "transactionHash": "0xe9f59f55bc0e019e7e413f4edf08236443488f91438c427e1e46a047d5451091",
          "transactionIndex": "0xaf",
          "logIndex": "0x191",
          "removed": false
        }
      ],
      "logsBloom": "0x00000000000000000000000000004000000000000000000010000000000000000008000000000000000800010008000000000000000000000000020000000000000000000000000000000040000002000000000000040000000002000000200100000010020000000080000400000800100000000000000000000000000210000000000000000000000800010001000000000000000080000000000000000000000000000000000000400200400000000000000000002000000002000000000000000000040000000003000002000000000000000004200000000010000020000040000000000000000000000000000000000000000000000000000000000000",
      "type": "0x2",
      "transactionHash": "0xe9f59f55bc0e019e7e413f4edf08236443488f91438c427e1e46a047d5451091",
      "transactionIndex": "0xaf",
      "blockHash": "0xd110a6f5c5c1f47b8b1144dacac5276c657d52726f4439e2a117b5a9ea0ef472",
      "blockNumber": "0x7fad61",
      "gasUsed": "0x57f47",
      "effectiveGasPrice": "0x87eadc",
      "from": "0xa84e4f9d72cb37a8276090d3fc50895bd8e5aaf1",
      "to": "0x4337084d9e255ff0702461cf8895ce9e3b5ff108",
      "contractAddress": null
    }
  ],
  "libraries": [],
  "pending": [],
  "returns": {},
  "timestamp": 1747740252,
  "chain": 11155111,
  "commit": null
}