{
  "transactions": [
    {
      "hash": "0xd8c51e7be6e43e3ee339cd04062e6f27026ce8ed90707047acc3fe9cf739eecb",
      "transactionType": "CALL",
      "contractName": null,
      "contractAddress": "0xb37874843350e3bfe1de2b50bd3ef381c3d8e6c2",
      "function": "initialize(((bytes32,bytes32),address,uint8),(uint48,uint48,uint48,bool,address,(address,uint256),bytes4[],uint256),bytes,bytes32)",
      "arguments": [
        "((0x7e4e071909a886db839d511a760a2accfe4adfa7b0b228d015132bb292bd963a, 0x1daba9a3777ca765c39410cf71e316db9704c6ff31c33709ac9dbb66453f870f), 0x0000000000000000000000000000000000000000, 1)",
        "(0, 0, 0, false, 0x0000000000000000000000000000000000000000, (0x0000000000000000000000000000000000000000, 0), [0xdeedbeef], 0)",
        "0x109596ab5bbbf7bcb094e3fffdf3d95133f21caa14b75c3b9214792172fc81f8176bae46149766542716d14bc278aef419461f2d4673aae714bd89494a8e7c5a1c",
        "0x8f04faeea2caea28551c664a3f907c3fe98f1b96d919899ab1f9abfa4aa37db4"
      ],
      "transaction": {
        "from": "0xb37874843350e3bfe1de2b50bd3ef381c3d8e6c2",
        "to": "0xb37874843350e3bfe1de2b50bd3ef381c3d8e6c2",
        "gas": "0x700c0",
        "value": "0x0",
        "input": "0xbdf969c57e4e071909a886db839d511a760a2accfe4adfa7b0b228d015132bb292bd963a1daba9a3777ca765c39410cf71e316db9704c6ff31c33709ac9dbb66453f870f0000000000000000000000000000000000000000000000000000000000000000000000000000000000000000000000000000000000000000000000000000000100000000000000000000000000000000000000000000000000000000000000e000000000000000000000000000000000000000000000000000000000000002408f04faeea2caea28551c664a3f907c3fe98f1b96d919899ab1f9abfa4aa37db40000000000000000000000000000000000000000000000000000000000000000000000000000000000000000000000000000000000000000000000000000000000000000000000000000000000000000000000000000000000000000000000000000000000000000000000000000000000000000000000000000000000000000000000000000000000000000000000000000000000000000000000000000000000000000000000000000000000000000000000000000000000000000000000000000000000000000000000000000000000000000000000000000000000000000000000000000000000000000000000000000000000000000000000000000012000000000000000000000000000000000000000000000000000000000000000000000000000000000000000000000000000000000000000000000000000000001deedbeef000000000000000000000000000000000000000000000000000000000000000000000000000000000000000000000000000000000000000000000041109596ab5bbbf7bcb094e3fffdf3d95133f21caa14b75c3b9214792172fc81f8176bae46149766542716d14bc278aef419461f2d4673aae714bd89494a8e7c5a1c00000000000000000000000000000000000000000000000000000000000000",
        "nonce": "0x2",
        "chainId": "0xaa36a7"
      },
      "additionalContracts": [],
      "isFixedGasLimit": false
    }
  ],
  "receipts": [
    {
      "status": "0x1",
      "cumulativeGasUsed": "0x17fa505",
      "logs": [
        {
          "address": "0xb37874843350e3bfe1de2b50bd3ef381c3d8e6c2",
          "topics": [
            "0x9f5d5730c4bbbefc17b3e91caf72ce6fafd168225a29d2c17a9efb0587b3d094",
            "0x8f04faeea2caea28551c664a3f907c3fe98f1b96d919899ab1f9abfa4aa37db4"
          ],
          "data": "0x",
          "blockHash": "0x25af6c67395a1c38312fdcb3dceff4ce58a17966254e71a9cdef419e3b56bfe5",
          "blockNumber": "0x846556",
          "blockTimestamp": "0x68654328",
          "transactionHash": "0xd8c51e7be6e43e3ee339cd04062e6f27026ce8ed90707047acc3fe9cf739eecb",
          "transactionIndex": "0x191",
          "logIndex": "0x23a",
          "removed": false
        },
        {
          "address": "0xb37874843350e3bfe1de2b50bd3ef381c3d8e6c2",
          "topics": [
            "0x9be0ddb3ac5d6261cc8d736bf39c29feb13498533b6c9f960d8e175bf70e6a1a",
            "0xa22d88905675824f273a865ce25906c7ce891462314e301757e136b27a288786"
          ],
          "data": "0x",
          "blockHash": "0x25af6c67395a1c38312fdcb3dceff4ce58a17966254e71a9cdef419e3b56bfe5",
          "blockNumber": "0x846556",
          "blockTimestamp": "0x68654328",
          "transactionHash": "0xd8c51e7be6e43e3ee339cd04062e6f27026ce8ed90707047acc3fe9cf739eecb",
          "transactionIndex": "0x191",
          "logIndex": "0x23b",
          "removed": false
        },
        {
          "address": "0xb37874843350e3bfe1de2b50bd3ef381c3d8e6c2",
          "topics": [
            "0xc7f505b2f371ae2175ee4913f4499e1f2633a7b5936321eed1cdaeb6115181d2"
          ],
          "data": "0x0000000000000000000000000000000000000000000000000000000000000001",
          "blockHash": "0x25af6c67395a1c38312fdcb3dceff4ce58a17966254e71a9cdef419e3b56bfe5",
          "blockNumber": "0x846556",
          "blockTimestamp": "0x68654328",
          "transactionHash": "0xd8c51e7be6e43e3ee339cd04062e6f27026ce8ed90707047acc3fe9cf739eecb",
          "transactionIndex": "0x191",
          "logIndex": "0x23c",
          "removed": false
        }
      ],
      "logsBloom": "0x00000000000000000800000000000000000000000000000000000000000000000000000000000800000800000000000000000000000000000000000000400000000000000000000000000000000000000000000000000000040000000000000000000000000000000800000000000000800000000000000000000000000000000200000000000000000800010000000000001000000080000000000000000001000000000000000000000000000000000000000000000000000000000400000000000000000000000000000002000000000000000004000000000000001000000000000000000000000000000000000000000000000000000000000000000100",
      "type": "0x2",
      "transactionHash": "0xd8c51e7be6e43e3ee339cd04062e6f27026ce8ed90707047acc3fe9cf739eecb",
      "transactionIndex": "0x191",
      "blockHash": "0x25af6c67395a1c38312fdcb3dceff4ce58a17966254e71a9cdef419e3b56bfe5",
      "blockNumber": "0x846556",
      "gasUsed": "0x511ec",
      "effectiveGasPrice": "0x27b8a8526",
      "from": "0xb37874843350e3bfe1de2b50bd3ef381c3d8e6c2",
      "to": "0xb37874843350e3bfe1de2b50bd3ef381c3d8e6c2",
      "contractAddress": null
    }
  ],
  "libraries": [],
  "pending": [],
  "returns": {},
  "timestamp": 1751466792,
  "chain": 11155111,
  "commit": "f112edb"
}